{
  "contractName": "Marketplace",
  "abi": [
    {
      "inputs": [],
      "payable": false,
      "stateMutability": "nonpayable",
      "type": "constructor"
    },
    {
      "anonymous": false,
      "inputs": [
        {
          "indexed": false,
          "internalType": "uint256",
          "name": "id",
          "type": "uint256"
        },
        {
          "indexed": false,
          "internalType": "string",
          "name": "name",
          "type": "string"
        },
        {
          "indexed": false,
          "internalType": "uint256",
          "name": "price",
          "type": "uint256"
        },
        {
          "indexed": false,
          "internalType": "address payable",
          "name": "owner",
          "type": "address"
        },
        {
          "indexed": false,
          "internalType": "bool",
          "name": "purchased",
          "type": "bool"
        }
      ],
      "name": "ProductCreated",
      "type": "event"
    },
    {
      "anonymous": false,
      "inputs": [
        {
          "indexed": false,
          "internalType": "uint256",
          "name": "id",
          "type": "uint256"
        },
        {
          "indexed": false,
          "internalType": "string",
          "name": "name",
          "type": "string"
        },
        {
          "indexed": false,
          "internalType": "uint256",
          "name": "price",
          "type": "uint256"
        },
        {
          "indexed": false,
          "internalType": "address payable",
          "name": "owner",
          "type": "address"
        },
        {
          "indexed": false,
          "internalType": "bool",
          "name": "purchased",
          "type": "bool"
        }
      ],
      "name": "ProductPurchased",
      "type": "event"
    },
    {
      "constant": true,
      "inputs": [],
      "name": "name",
      "outputs": [
        {
          "internalType": "string",
          "name": "",
          "type": "string"
        }
      ],
      "payable": false,
      "stateMutability": "view",
      "type": "function"
    },
    {
      "constant": true,
      "inputs": [],
      "name": "productCount",
      "outputs": [
        {
          "internalType": "uint256",
          "name": "",
          "type": "uint256"
        }
      ],
      "payable": false,
      "stateMutability": "view",
      "type": "function"
    },
    {
      "constant": false,
      "inputs": [
        {
          "internalType": "string",
          "name": "_name",
          "type": "string"
        },
        {
          "internalType": "uint256",
          "name": "_price",
          "type": "uint256"
        }
      ],
      "name": "createProduct",
      "outputs": [],
      "payable": false,
      "stateMutability": "nonpayable",
      "type": "function"
    },
    {
      "constant": false,
      "inputs": [
        {
          "internalType": "uint256",
          "name": "_id",
          "type": "uint256"
        }
      ],
      "name": "purchaseProduct",
      "outputs": [],
      "payable": true,
      "stateMutability": "payable",
      "type": "function"
    }
  ],
  "bytecode": "0x6080604052600060015534801561001557600080fd5b506040518060400160405280601181526020017f5a69656473206d61726b6574706c61636500000000000000000000000000000081525060009080519060200190610061929190610067565b5061010c565b828054600181600116156101000203166002900490600052602060002090601f016020900481019282601f106100a857805160ff19168380011785556100d6565b828001600101855582156100d6579182015b828111156100d55782518255916020019190600101906100ba565b5b5090506100e391906100e7565b5090565b61010991905b808211156101055760008160009055506001016100ed565b5090565b90565b610bee8061011b6000396000f3fe60806040526004361061003f5760003560e01c806306fdde031461004457806338e76a03146100d4578063e0f6ef8714610102578063e9300c6c1461012d575b600080fd5b34801561005057600080fd5b506100596101ff565b6040518080602001828103825283818151815260200191508051906020019080838360005b8381101561009957808201518184015260208101905061007e565b50505050905090810190601f1680156100c65780820380516001836020036101000a031916815260200191505b509250505060405180910390f35b610100600480360360208110156100ea57600080fd5b810190808035906020019092919050505061029d565b005b34801561010e57600080fd5b506101176107b7565b6040518082815260200191505060405180910390f35b34801561013957600080fd5b506101fd6004803603604081101561015057600080fd5b810190808035906020019064010000000081111561016d57600080fd5b82018360208201111561017f57600080fd5b803590602001918460018302840111640100000000831117156101a157600080fd5b91908080601f016020809104026020016040519081016040528093929190818152602001838380828437600081840152601f19601f820116905080830192505050505050509192919290803590602001909291905050506107bd565b005b60008054600181600116156101000203166002900480601f0160208091040260200160405190810160405280929190818152602001828054600181600116156101000203166002900480156102955780601f1061026a57610100808354040283529160200191610295565b820191906000526020600020905b81548152906001019060200180831161027857829003601f168201915b505050505081565b6000811080156102af57506001548111155b610321576040517f08c379a000000000000000000000000000000000000000000000000000000000815260040180806020018281038252600f8152602001807f696e76616c69642070726f64756374000000000000000000000000000000000081525060200191505060405180910390fd5b610329610a84565b600260008381526020019081526020016000206040518060a001604052908160008201548152602001600182018054600181600116156101000203166002900480601f0160208091040260200160405190810160405280929190818152602001828054600181600116156101000203166002900480156103ea5780601f106103bf576101008083540402835291602001916103ea565b820191906000526020600020905b8154815290600101906020018083116103cd57829003601f168201915b50505050508152602001600282015481526020016003820160009054906101000a900473ffffffffffffffffffffffffffffffffffffffff1673ffffffffffffffffffffffffffffffffffffffff1673ffffffffffffffffffffffffffffffffffffffff1681526020016003820160149054906101000a900460ff16151515158152505090503373ffffffffffffffffffffffffffffffffffffffff16816060015173ffffffffffffffffffffffffffffffffffffffff1614156104f9576040517f08c379a0000000000000000000000000000000000000000000000000000000008152600401808060200182810382526025815260200180610b956025913960400191505060405180910390fd5b8060400151341015610573576040517f08c379a00000000000000000000000000000000000000000000000000000000081526004018080602001828103825260108152602001807f6e6f7420656e6f7567682066756e64730000000000000000000000000000000081525060200191505060405180910390fd5b600081606001519050600182608001901515908115158152505033826060019073ffffffffffffffffffffffffffffffffffffffff16908173ffffffffffffffffffffffffffffffffffffffff168152505081600260008581526020019081526020016000206000820151816000015560208201518160010190805190602001906105ff929190610acb565b506040820151816002015560608201518160030160006101000a81548173ffffffffffffffffffffffffffffffffffffffff021916908373ffffffffffffffffffffffffffffffffffffffff16021790555060808201518160030160146101000a81548160ff0219169083151502179055509050508073ffffffffffffffffffffffffffffffffffffffff166108fc349081150290604051600060405180830381858888f193505050501580156106ba573d6000803e3d6000fd5b507fbc59c0c8165864dcceb377dd07d8f431d4303f8e501cb0a0374a10cc68d718366001548360200151846040015133600160405180868152602001806020018581526020018473ffffffffffffffffffffffffffffffffffffffff1673ffffffffffffffffffffffffffffffffffffffff16815260200183151515158152602001828103825286818151815260200191508051906020019080838360005b83811015610774578082015181840152602081019050610759565b50505050905090810190601f1680156107a15780820380516001836020036101000a031916815260200191505b50965050505050505060405180910390a1505050565b60015481565b6000825111610834576040517f08c379a000000000000000000000000000000000000000000000000000000000815260040180806020018281038252601a8152602001807f546865206e616d65206d757374206265206e6f7420656d70747900000000000081525060200191505060405180910390fd5b6000811161088d576040517f08c379a0000000000000000000000000000000000000000000000000000000008152600401808060200182810382526024815260200180610b716024913960400191505060405180910390fd5b6001600081548092919060010191905055506040518060a0016040528060015481526020018381526020018281526020013373ffffffffffffffffffffffffffffffffffffffff1681526020016000151581525060026000600154815260200190815260200160002060008201518160000155602082015181600101908051906020019061091c929190610acb565b506040820151816002015560608201518160030160006101000a81548173ffffffffffffffffffffffffffffffffffffffff021916908373ffffffffffffffffffffffffffffffffffffffff16021790555060808201518160030160146101000a81548160ff0219169083151502179055509050507fbc59c0c8165864dcceb377dd07d8f431d4303f8e501cb0a0374a10cc68d71836600154838333600060405180868152602001806020018581526020018473ffffffffffffffffffffffffffffffffffffffff1673ffffffffffffffffffffffffffffffffffffffff16815260200183151515158152602001828103825286818151815260200191508051906020019080838360005b83811015610a42578082015181840152602081019050610a27565b50505050905090810190601f168015610a6f5780820380516001836020036101000a031916815260200191505b50965050505050505060405180910390a15050565b6040518060a00160405280600081526020016060815260200160008152602001600073ffffffffffffffffffffffffffffffffffffffff1681526020016000151581525090565b828054600181600116156101000203166002900490600052602060002090601f016020900481019282601f10610b0c57805160ff1916838001178555610b3a565b82800160010185558215610b3a579182015b82811115610b39578251825591602001919060010190610b1e565b5b509050610b479190610b4b565b5090565b610b6d91905b80821115610b69576000816000905550600101610b51565b5090565b9056fe546865207072696365206e6565647320746f2062652067726561746572207468616e20304f776e65722063616e6e6f7420707572636861736520686973206f776e2070726f64756374a265627a7a72315820d0f7b3ac0fba248112cc8dcbe3c66e8002758dc9ce44ae2f8c2e6c4b8ca1584c64736f6c63430005100032",
  "source": "pragma solidity ^0.5.0;\r\n\r\ncontract Marketplace{\r\n    string public name;\r\n    uint public productCount = 0;\r\n    mapping(uint => Product) products;\r\n    \r\n\r\n    struct Product{\r\n        uint id;\r\n        string name;\r\n        uint price;\r\n        address payable owner;\r\n        bool purchased;\r\n    }\r\n    // an event to trigger when a product is created.\r\n    event ProductCreated(uint id,\r\n        string name,\r\n        uint price,\r\n        address payable owner,\r\n        bool purchased\r\n        );\r\n\r\n    event ProductPurchased(uint id,\r\n        string name,\r\n        uint price,\r\n        address payable owner,\r\n        bool purchased\r\n        );\r\n\r\n    constructor() public{\r\n        name=\"Zieds marketplace\";\r\n    }\r\n\r\n    function createProduct(string memory _name,uint _price)public{ // memory just tells solidity to make an exact space to the variable at runtime.\r\n        require(bytes(_name).length>0,'The name must be not empty');\r\n        require(_price>0,'The price needs to be greater than 0');\r\n        productCount++;\r\n        products[productCount]=Product(productCount,_name,_price,msg.sender,false);\r\n        emit ProductCreated(productCount,_name,_price,msg.sender,false);\r\n\r\n    }\r\n\r\n    function purchaseProduct(uint _id) public payable{\r\n        //test the product id \r\n        require(_id<0 && _id<=productCount,'invalid product');\r\n        //fetch the product\r\n        Product memory product=products[_id];\r\n        //test if the buyer!=the owner\r\n        require(product.owner!=msg.sender,'Owner cannot purchase his own product');\r\n        // test if msg.value >= product price\r\n        require(msg.value>=product.price,'not enough funds');\r\n        address payable owner=product.owner;\r\n        // Mark as purchased\r\n        product.purchased = true;\r\n        product.owner=msg.sender;\r\n        products[_id]=product;\r\n        \r\n        // Pay the seller by sending them Ether\r\n        address(owner).transfer(msg.value);\r\n        emit ProductCreated(productCount,product.name,product.price,msg.sender,true);\r\n    }\r\n}\r\n\r\n",
  "sourcePath": "C:\\Users\\moham\\OneDrive\\Desktop\\GL3\\blockchain secs\\projects\\marketplace\\src\\contracts\\Marketplace.sol",
  "compiler": {
    "name": "solc",
    "version": "0.5.16+commit.9c3226ce.Emscripten.clang"
  },
  "schemaVersion": "3.4.3",
  "updatedAt": "2021-11-24T16:09:30.181Z",
  "networkType": "ethereum",
  "devdoc": {
    "methods": {}
  },
  "userdoc": {
    "methods": {}
  }
}