{
  "contractName": "Marketplace",
  "abi": [
    {
      "inputs": [],
      "payable": false,
      "stateMutability": "nonpayable",
      "type": "constructor"
    },
    {
      "anonymous": false,
      "inputs": [
        {
          "indexed": false,
          "internalType": "uint256",
          "name": "id",
          "type": "uint256"
        },
        {
          "indexed": false,
          "internalType": "string",
          "name": "name",
          "type": "string"
        },
        {
          "indexed": false,
          "internalType": "uint256",
          "name": "price",
          "type": "uint256"
        },
        {
          "indexed": false,
          "internalType": "address",
          "name": "owner",
          "type": "address"
        },
        {
          "indexed": false,
          "internalType": "bool",
          "name": "purchased",
          "type": "bool"
        }
      ],
      "name": "ProductCreated",
      "type": "event"
    },
    {
      "constant": true,
      "inputs": [],
      "name": "name",
      "outputs": [
        {
          "internalType": "string",
          "name": "",
          "type": "string"
        }
      ],
      "payable": false,
      "stateMutability": "view",
      "type": "function"
    },
    {
      "constant": true,
      "inputs": [],
      "name": "productCount",
      "outputs": [
        {
          "internalType": "uint256",
          "name": "",
          "type": "uint256"
        }
      ],
      "payable": false,
      "stateMutability": "view",
      "type": "function"
    },
    {
      "constant": false,
      "inputs": [
        {
          "internalType": "string",
          "name": "_name",
          "type": "string"
        },
        {
          "internalType": "uint256",
          "name": "_price",
          "type": "uint256"
        }
      ],
      "name": "createProduct",
      "outputs": [],
      "payable": false,
      "stateMutability": "nonpayable",
      "type": "function"
    }
  ],
  "bytecode": "0x6080604052600060015534801561001557600080fd5b506040518060400160405280601181526020017f5a69656473206d61726b6574706c61636500000000000000000000000000000081525060009080519060200190610061929190610067565b5061010c565b828054600181600116156101000203166002900490600052602060002090601f016020900481019282601f106100a857805160ff19168380011785556100d6565b828001600101855582156100d6579182015b828111156100d55782518255916020019190600101906100ba565b5b5090506100e391906100e7565b5090565b61010991905b808211156101055760008160009055506001016100ed565b5090565b90565b6106158061011b6000396000f3fe608060405234801561001057600080fd5b50600436106100415760003560e01c806306fdde0314610046578063e0f6ef87146100c9578063e9300c6c146100e7575b600080fd5b61004e6101ac565b6040518080602001828103825283818151815260200191508051906020019080838360005b8381101561008e578082015181840152602081019050610073565b50505050905090810190601f1680156100bb5780820380516001836020036101000a031916815260200191505b509250505060405180910390f35b6100d161024a565b6040518082815260200191505060405180910390f35b6101aa600480360360408110156100fd57600080fd5b810190808035906020019064010000000081111561011a57600080fd5b82018360208201111561012c57600080fd5b8035906020019184600183028401116401000000008311171561014e57600080fd5b91908080601f016020809104026020016040519081016040528093929190818152602001838380828437600081840152601f19601f82011690508083019250505050505050919291929080359060200190929190505050610250565b005b60008054600181600116156101000203166002900480601f0160208091040260200160405190810160405280929190818152602001828054600181600116156101000203166002900480156102425780601f1061021757610100808354040283529160200191610242565b820191906000526020600020905b81548152906001019060200180831161022557829003601f168201915b505050505081565b60015481565b60008251116102c7576040517f08c379a000000000000000000000000000000000000000000000000000000000815260040180806020018281038252601a8152602001807f546865206e616d65206d757374206265206e6f7420656d70747900000000000081525060200191505060405180910390fd5b60008111610320576040517f08c379a00000000000000000000000000000000000000000000000000000000081526004018080602001828103825260248152602001806105bd6024913960400191505060405180910390fd5b6001600081548092919060010191905055506040518060a0016040528060015481526020018381526020018281526020013373ffffffffffffffffffffffffffffffffffffffff168152602001600015158152506002600060015481526020019081526020016000206000820151816000015560208201518160010190805190602001906103af929190610517565b506040820151816002015560608201518160030160006101000a81548173ffffffffffffffffffffffffffffffffffffffff021916908373ffffffffffffffffffffffffffffffffffffffff16021790555060808201518160030160146101000a81548160ff0219169083151502179055509050507fbc59c0c8165864dcceb377dd07d8f431d4303f8e501cb0a0374a10cc68d71836600154838333600060405180868152602001806020018581526020018473ffffffffffffffffffffffffffffffffffffffff1673ffffffffffffffffffffffffffffffffffffffff16815260200183151515158152602001828103825286818151815260200191508051906020019080838360005b838110156104d55780820151818401526020810190506104ba565b50505050905090810190601f1680156105025780820380516001836020036101000a031916815260200191505b50965050505050505060405180910390a15050565b828054600181600116156101000203166002900490600052602060002090601f016020900481019282601f1061055857805160ff1916838001178555610586565b82800160010185558215610586579182015b8281111561058557825182559160200191906001019061056a565b5b5090506105939190610597565b5090565b6105b991905b808211156105b557600081600090555060010161059d565b5090565b9056fe546865207072696365206e6565647320746f2062652067726561746572207468616e2030a265627a7a72315820b0777141345c1498e7bde88df40eb5b27f2ba3440b0a46ab2fb25e9499f1389e64736f6c63430005100032",
  "source": "pragma solidity ^0.5.0;\r\n\r\ncontract Marketplace{\r\n    string public name;\r\n    uint public productCount = 0;\r\n    mapping(uint => Product) products;\r\n    \r\n\r\n    struct Product{\r\n        uint id;\r\n        string name;\r\n        uint price;\r\n        address owner;\r\n        bool purchased;\r\n    }\r\n    // an event to trigger when a product is created.\r\n    event ProductCreated(uint id,\r\n        string name,\r\n        uint price,\r\n        address owner,\r\n        bool purchased\r\n        );\r\n\r\n    constructor() public{\r\n        name=\"Zieds marketplace\";\r\n    }\r\n\r\n    function createProduct(string memory _name,uint _price)public{ // memory just tells solidity to make an exact space to the variable at runtime.\r\n        require(bytes(_name).length>0,'The name must be not empty');\r\n        require(_price>0,'The price needs to be greater than 0');\r\n        productCount++;\r\n        products[productCount]=Product(productCount,_name,_price,msg.sender,false);\r\n        emit ProductCreated(productCount,_name,_price,msg.sender,false);\r\n\r\n    }\r\n}\r\n\r\n",
  "sourcePath": "C:\\Users\\moham\\OneDrive\\Desktop\\GL3\\blockchain secs\\projects\\marketplace\\src\\contracts\\Marketplace.sol",
  "compiler": {
    "name": "solc",
    "version": "0.5.16+commit.9c3226ce.Emscripten.clang"
  },
  "schemaVersion": "3.4.3",
  "updatedAt": "2021-11-24T14:45:15.356Z",
  "networkType": "ethereum",
  "devdoc": {
    "methods": {}
  },
  "userdoc": {
    "methods": {}
  }
}